:100000000C949E030C94C6030C94C6030C94C60374
:100010000C94C6030C94C6030C94C6030C94C6033C
:100020000C94C6030C94C6030C94C6030C94C6032C
:100030000C94C6030C94C6030C94C6030C94C6031C
:100040000C94AD0A0C94C6030C947B0A0C94550ACC
:100050000C94C6030C94C6030C94C6030C94C603FC
:100060000C94C6030C94C603447520686173742015
:100070007A75207669656C65204665686C657220C6
:1000800067656D61636874005A7572C3BC636B20E9
:100090006175662046656C64203100000000080030
:1000A00002010000030407000000000000000049F6
:1000B000636820686F6666652065732068617420D8
:1000C00053706173732067656D616368742E205689
:1000D00069656C204572666F6C67206265696D208A
:1000E00073756368656E2064657220426F782E00B8
:1000F0007A7520657268616C74656E2E204E696336
:100100006874206C65736261723F204F6A65656533
:100110002C20616265722064617320776972737448
:100120002044752061756368206E6F636820736377
:1001300068616666656E21004A65747A742068613C
:100140007374204475206573207665726469656EEA
:100150007420646965204B6F6F7264696E617465A9
:100160006E20667565722064656E20436163686504
:10017000004475206861737420646965204D656C66
:1001800064756E67207269636874696720656E7450
:100190007363686C75657373656C742C206272612F
:1001A000766F210045696E67616265203C6162631C
:1001B00064653E00776965646572686F6C742C20B5
:1001C000626973742044752065696E652045696EA7
:1001D000676162652074616574696773742E004E8F
:1001E0006F746965726520646965736520756E64F6
:1001F00020676962207369652064616E6E2065699D
:100200006E2E20446965204D656C64756E6720779D
:1002100069726420736F6C616E6765004469652064
:100220004C4544207769726420446972206E756E73
:100230002065696E65206B6F646965727465204D19
:10024000656C64756E672061757320352042756337
:100250006873746162656E207A656967656E0054C3
:100260006F6C6C2067656D616368742100497374FD
:100270002064617320736F3F2045696E676162651A
:10028000203C6A3E2F3C6E3E00626C696E6B656E70
:1002900000446965204C454420736F6C6C74652084
:1002A0006A65747A7420696D2041627374616E644A
:1002B00020766F6E2065696E65722053656B756E72
:1002C0006465005072696D612C2077697220776FC8
:1002D0006C6C656E20646965204C454420676C65D4
:1002E0006963682074657374656E00426973742075
:1002F000447520736F776569743F2045696E676147
:100300006265203C6A3E2F3C6E3E00616E20506F5D
:10031000727420313220616E2E2041636874652032
:1003200061756620646965207269636874696765D0
:1003300020506F6C756E6720646572204C454400D8
:100340005363686C6965737365206E756E206569AB
:100350006E65204C45442075656265722065696E46
:10036000656E20333330204F686D205769646572A5
:100370007374616E64004175666761626520333A2B
:10038000200044696520322E2041756667616265F0
:1003900020686173742044752072696368746967AA
:1003A0002067656C6F657374004C6F7320676568B8
:1003B00074732E2E2E0044656E2031304B204F6812
:1003C0006D2057696465727374616E642064617234
:1003D000667374204475206E6963687420656E6668
:1003E00065726E656E2E0041726475696E6F205580
:1003F0004E4F20776F686C206675657220696D6D51
:100400006572207365696E656E2047656973742037
:10041000617566676562656E21004162657220568E
:100420006F7273696368742C2077656E6E206D65DA
:10043000687220616C73203520566F6C7420616E79
:100440006C696567656E2077697264204465696EC2
:100450000049636820776572646520446972206A88
:10046000657765696C73206D69747465696C656E18
:100470002C2077656C636865722057657274206103
:100480006E6C696567742E004E756E20736F6C6CB0
:10049000737420447520322C3520566F6C74202BD9
:1004A0002D302E325620616D20506F7274204131F4
:1004B0002065696E7370656973656E2E005365689B
:1004C00072206775742C2064616E6B652E00496321
:1004D00068206D656C6465206D6963682077696567
:1004E0006465722C2077656E6E2044752064656E9D
:1004F0002057696465727374616E6420616E67650C
:100500007363686C6F7373656E20686173742E001B
:10051000726573702E2073636877616E6B742E0042
:1005200064616D697420646965205370616E6E75D5
:100530006E6720616E2064696573656D20506F720F
:1005400074206E6963687420666C756B7475696578
:100550007274200041312075656265722065696E94
:10056000656E2031306B2057696465727374616EFB
:100570006420616E2047726F756E642065726465D9
:100580006E00467565722064696520322E204175C3
:10059000666761626520776F6C6C656E2077697243
:1005A000207A75657273742064656E20616E616C6B
:1005B0006F67656E20506F72740053757065722C92
:1005C0002072696368746967210045696E676162BA
:1005D00065203C782C793E2E2044696520546F6C50
:1005E0006572616E7A206265747261656774202B32
:1005F0002D20302C3256004D65737365206469657B
:10060000205370616E6E756E6720616D20506F7241
:100610007420443320696E20566F6C74004F4B2C4D
:100620002064616E6E207374617274656E207769E8
:1006300072206A65747A74206D6974206465722012
:10064000312E2041756667616265004269737420CE
:100650004475206265726569743F2045696E676103
:100660006265203C6A3E2F3C6E3E20286D697420F6
:1006700065636B6967656E204B6C616D6D65726E4D
:100680002C207769652064617267657374656C6C92
:10069000742900736F6C6C73742044752065696EE7
:1006A00069676520417566676162656E206C6F657C
:1006B00073656E2E00556D20646965204361636823
:1006C00065204B6F6F7264696E6174656E207A7518
:1006D00020657268616C74656E0057696C6C6B6F35
:1006E0006D6D656E207A756D20436163686575690F
:1006F0006E6F2047433939384A5400000000002506
:100700000028002B0000000000240027002A00041D
:1007100004040404040404020202020202030303A8
:1007200003030301020408102040800102040810A2
:100730002001020408102000F70A911011241FBEA6
:10074000CFEFD8E0DEBFCDBF12E0A0E0B1E0EAE33A
:10075000FCE202C005900D92AA33B107D9F723E05D
:10076000AAE3B2E001C01D92A63FB207E1F713E091
:10077000CDE9D3E004C02197FE010E940F14CC39CB
:10078000D107C9F70E949B0B0C9410160C94000023
:1007900090E0FC01ED5DF84F2491815F984FFC01E2
:1007A0008491882399F090E0880F991FFC01EB5FFA
:1007B000F84FA591B491FC01E550F94F85919491C2
:1007C0008FB7F894EC91E22BEC938FBF08952F92A2
:1007D0003F924F925F926F927F928F929F92AF92D1
:1007E000BF92CF92DF92EF92FF920F931F93CF931E
:1007F000DF9300D000D0CDB7DEB78FB7F8948090EC
:100800000A0390900B03A0900C03B0900D038FBFD0
:10081000ECE6F3E024E433E03C832B833A83298342
:1008200090E080E041E050E032E0232E312CBF0127
:1008300062597F4FDB011D921C92208131813296DB
:10084000232BA1F1A981BA810D911D912D913C918C
:100850001397DC96CD90DD90ED90FC90DF9724010E
:100860003501401A510A620A730A4C145D046E0481
:100870007F04E0F00C0D1D1D2E1D3F1D0D931D93DB
:100880002D933C9313979C0120533C4FD9012C91FD
:10089000222361F022AD33AD2115310509F043C0AB
:1008A0009F0124593F4FD9014D935C9301962981B3
:1008B0003A812C5F3F4F3A8329838A30910509F0B2
:1008C000B6CF10E000E0EB80FC8036E9E30EF11CCF
:1008D000D7018D919C918130910509F442C0029716
:1008E00009F446C00F5F1F4FEB81FC813296FC83F9
:1008F000EB830A30110539F70F900F900F900F908E
:10090000DF91CF911F910F91FF90EF90DF90CF90EB
:10091000BF90AF909F908F907F906F905F904F901F
:100920003F902F9008957F01BEE4EB0EF11CD7019C
:100930000D911C91021713070CF0B8CFBF01645939
:100940007F4FDB014D935C930F5F1F4FD7010D93DA
:100950001C93021713070CF4A9CFDB012D923C92D4
:10096000A5CFAB81BC819896ED91FC910995BACF4A
:10097000AB81BC819896ED91FC9109958091EE0335
:100980009091EF03009709F4ADCFEB81FC8120A596
:1009900031A5232B09F4A6CF11A610A6F801E05328
:1009A000FC4F1082D7011D921C92F801EE0FFF1F21
:1009B000EE0FFF1FEC5BFC4F14AE15AE16AE17AE7C
:1009C000EB81FC81E858FF4F1182108201979093D0
:1009D000EF038093EE0386CFAF92BF92CF92DF9268
:1009E000EF92FF920F931F93CF93DF936C017B01E4
:1009F0008B01040F151FEB015E01AE18BF08C01775
:100A0000D10759F06991D601ED91FC910190F081E7
:100A1000E02DC6010995892B79F7C501DF91CF91AA
:100A20001F910F91FF90EF90DF90CF90BF90AF900C
:100A30000895FC01538D448D252F30E0842F90E0E4
:100A4000821B930B541710F0CF96089501970895C9
:100A5000FC01918D828D981761F0A28DAE0FBF2F92
:100A6000B11D5D968C91928D9F5F9F73928F90E0E8
:100A700008958FEF9FEF0895FC01918D828D981757
:100A800031F0828DE80FF11D858D90E008958FEF94
:100A90009FEF0895FC01918D228D892F90E0805C5D
:100AA0009F4F821B91098F73992708958DE692E0DD
:100AB0000E944A0521E0892B09F420E0822F089545
:100AC00080E090E0892B29F00E94560581110C945A
:100AD00000000895FC01A48DA80FB92FB11DA35AE1
:100AE000BF4F2C91848D90E001968F739927848F4E
:100AF000A689B7892C93A089B1898C918370806471
:100B00008C93938D848D981306C00288F389E02D11
:100B100080818F7D80830895EF92FF920F931F93C2
:100B2000CF93DF93EC0181E0888F9B8D8C8D9813A0
:100B30001AC0E889F989808185FF15C09FB7F894AC
:100B4000EE89FF896083E889F989808183708064F8
:100B500080839FBF81E090E0DF91CF911F910F9143
:100B6000FF90EF900895F62E0B8D10E00F5F1F4F52
:100B70000F731127E02E8C8D8E110CC00FB607FC61
:100B8000FACFE889F989808185FFF5CFCE010E94EF
:100B90006A05F1CFEB8DEC0FFD2FF11DE35AFF4FEE
:100BA000F0829FB7F8940B8FEA89FB89808180627D
:100BB000CFCFCF93DF93EC01888D8823B9F0AA893A
:100BC000BB89E889F9898C9185FD03C0808186FD08
:100BD0000DC00FB607FCF7CF8C9185FFF2CF808157
:100BE00085FFEDCFCE010E946A05E9CFDF91CF915D
:100BF000089590E0FC01E556FF4F2491FC01ED5D66
:100C0000F84F3491FC01E15FF84FE491EE23C9F015
:100C1000222339F0233001F1A8F4213019F12230D8
:100C200029F1F0E0EE0FFF1FE550F94FA591B491C7
:100C30008FB7F894EC91611126C030953E233C9318
:100C40008FBF08952730A9F02830C9F0243049F724
:100C5000809180008F7D03C0809180008F7780938A
:100C60008000DFCF84B58F7784BDDBCF84B58F7DE7
:100C7000FBCF8091B0008F778093B000D2CF80916E
:100C8000B0008F7DF9CF3E2BDACF8E5080648093F9
:100C90007C0080917A00806480937A0080917A0051
:100CA00086FDFCCF809178009091790008953FB740
:100CB000F8948091460290914702A0914802B09129
:100CC000490226B5A89B05C02F3F19F00196A11D2A
:100CD000B11D3FBFBA2FA92F982F8827BC01CD0186
:100CE000620F711D811D911D42E0660F771F881FE5
:100CF000991F4A95D1F708958F929F92AF92BF9214
:100D0000CF92DF92EF92FF926B017C010E94570617
:100D10004B015C01C114D104E104F104B9F00E945B
:100D20005706681979098A099B09683E734081054D
:100D3000910580F321E0C21AD108E108F10888EE9C
:100D4000880E83E0981EA11CB11CE4CFFF90EF90A9
:100D5000DF90CF90BF90AF909F908F900895CF93EA
:100D6000DF930E94E703C1E0D7E08DE692E00E94A6
:100D70004A05181619065CF580916A02811127C090
:100D80008DE692E00E942805909144029923D1F0CB
:100D900090914302E92FF0E0E65AFD4F8E3351F077
:100DA00080839F5F983018F0D0934302DECF9093FA
:100DB0004302DBCF10821092440210924302C09390
:100DC0006A02D3CF8C3389F6C0934402CECFDF9131
:100DD000CF91089560E08CE00E94F90564EF71E026
:100DE00080E090E00E947C060C94AF060E94AF0663
:100DF00080916A02811112C061E08CE00E94F905C5
:100E00006CED75E080E090E00E947C060E94AF06E9
:100E100080916A02811102C00C94EA0608950E9432
:100E2000AF0680916A02811112C061E08CE00E94DD
:100E3000F90564EF71E080E090E00E947C060E947A
:100E4000AF0680916A02811102C00C94EA060895EF
:100E5000FC0101900020E9F73197AF01481B590BC5
:100E6000BC018DE692E00C94EC048F929F92AF92BD
:100E7000BF920F931F93CF93DF93CDB7DEB7A197A8
:100E80000FB6F894DEBF0FBECDBF19A2423008F4F2
:100E90004AE08E010F5D1F4F842E912CB12CA12CA6
:100EA000A50194010E943813E62FB901CA01EA3066
:100EB000F4F4E05DD801EE938D01232B242B252B38
:100EC00079F790E080E0109719F0CD010E94280793
:100ED000A1960FB6F894DEBF0FBECDBFDF91CF91C4
:100EE0001F910F91BF90AF909F908F900895E95CF4
:100EF000E1CF0F931F93CF93DF938C01D0E0C0E03D
:100F0000F801EC0FFD1F6491662341F08DE692E03D
:100F10000E948C05892B11F02196F2CF86E291E098
:100F20000E9428078C0F9D1FDF91CF911F910F9179
:100F30000895CF93DF93D0E0C0E0009719F00E94AE
:100F40002807EC0186E291E00E9428078C0F9D1F84
:100F5000DF91CF910895CF93DF93EC01809141020F
:100F6000909142020196909342028093410206972B
:100F7000ACF188E291E00E94990788E690E00E9437
:100F8000790788E291E00E94990788E890E00E9442
:100F9000790788E291E00E94990788E291E00E9437
:100FA000990710926C0210926B02109242021092FA
:100FB000410210924E0210924D0210924F02109276
:100FC0004B0210924A0210924C0210924002109270
:100FD0003F0210923E02DF91CF91089588E291E0A6
:100FE0000E949907CC0FDD1FC65FDE4F8881998173
:100FF000DF91CF910C9499074F925F926F927F92FD
:101000008F929F92AF92BF92CF92DF92EF92FF9218
:1010100080916B0290916C0283309105E1F18530F3
:10102000910509F440C1029719F58FE00E94450629
:10103000BC01990F880B990B0E94B21160933A0280
:1010400070933B0280933C0290933D022DEC3CEC6C
:101050004CE45EE30E94AB11181654F080914D02EF
:1010600090914E028430910584F081E080934F028C
:10107000FF90EF90DF90CF90BF90AF909F908F90B8
:101080007F906F905F904F900895019690934E02DD
:1010900080934D02EDCF80913E0290913F028031CE
:1010A00091050CF4FAC08FE00E944506BC01990F2F
:1010B000880B990B0E94B2112EE230E940EA5BE303
:1010C0000E9411126B017C014B015C01C0923A023B
:1010D000D0923B02E0923C02F0923D02AC019B01B7
:1010E0000E940A14882381F189E291E00E94280776
:1010F00085E391E00E949907C0903A02D0903B02AC
:10110000E0903C02F0903D0223E333E343E350E4FC
:10111000C701B6010E94AB1187FFAACF2DEC3CECB2
:101120004CE050E4C701B6010E94051418160CF0FB
:101130009FC080914A0290914B0204970CF4A3C087
:1011400081E080934C0294CF26013701E89477F830
:101150002FEF3FEF4FE75FE7C301B2010E940A1490
:1011600081110DC02FEF3FEF4FE75FE7C301B201E1
:101170000E94AB1118161CF48DE291E0B7CF2FEF4F
:101180003FEF4FE75FE4C701B6010E940514181650
:101190001CF481E391E0AACF2FEF3FEF4FE75FEC24
:1011A000C701B6010E94AB1187FDF3CF20E030E00C
:1011B000A901C701B6010E94AB1187FF0BC06DE208
:1011C0008DE692E00E948C0546015701B7FAB09473
:1011D000B7F8B0942AE037ED43EA5BE3C501B40108
:1011E0000E946A134B015C010E94D6136B017C01C3
:1011F0000E94B0119B01AC01C501B4010E946913AA
:101200004B015C014AE0C701B6010E9435076EE25E
:101210008DE692E00E948C0520E030E040E251E44F
:10122000C501B4010E9411124B015C010E94D6134A
:101230006B01F12CE12C4AE0C701B6010E94350791
:10124000C701B6010E94B0119B01AC01C501B401F8
:101250000E94691320E030E040E251E40E94111244
:101260000E94D61390E080E04AE00E94350740CF0C
:101270002DEC3CEC4CE050E4C701B6010E94051493
:1012800018160CF0F5CE80914A0290914B0201960F
:1012900090934B0280934A02EBCE019690933F02CB
:1012A00080933E02E5CE6091400281E06827609322
:1012B00040028CE0FF90EF90DF90CF90BF90AF9016
:1012C0009F908F907F906F905F904F900C94F90556
:1012D0000F931F93CF93DF93EC018881998100973F
:1012E00059F02A813B812617370730F081E0DF91E2
:1012F000CF911F910F9108958B016F5F7F4F0E94D7
:101300003A15009759F0998388831B830A832C81AF
:101310003D81232B59F7FC011082E8CF80E0E7CF15
:10132000CF93DF93EC0188819981009711F00E949F
:10133000B114198218821D821C821B821A82DF91CD
:10134000CF910895EF92FF920F931F93CF93DF9366
:10135000EC01FB01E080F180E114F10411F1048162
:10136000158101151105A9F08C819D81080F191FA8
:10137000B801CE010E946809882399F0288139813B
:101380008C819D81B701820F931F0E9409161D83D6
:101390000C83CE01DF91CF911F910F91FF90EF90C1
:1013A0000895CE010E949009F4CFEF92FF920F931F
:1013B0001F93CF93DF93EC018617970781F0FB0112
:1013C000008111810115110539F0E480F580B70124
:1013D0000E94680981110BC0CE010E949009CE01C4
:1013E000DF91CF911F910F91FF90EF900895FD82B3
:1013F000EC82B801888199810E940916F0CFEF92A2
:10140000FF920F931F93CF93DF93EC017B0119821F
:1014100018821B821A821D821C82FB01019000200F
:10142000E9F731978F01061B170BB8010E94680975
:10143000811109C0CE01DF91CF911F910F91FF90D3
:10144000EF900C9490091D830C83B70188819981DA
:10145000DF91CF911F910F91FF90EF900C9409169F
:10146000FC01808191810C94B11461157105810595
:10147000910511F00C94501108956BE371E082E630
:1014800092E00E947711BC0182E592E00E94091669
:101490006BE371E090E080E00E9477110E945911A7
:1014A000909351028093500208951F920F920FB6AD
:1014B0000F9211242F933F934F935F936F937F93DA
:1014C0008F939F93AF93BF93EF93FF938DE692E03B
:1014D0000E946A05FF91EF91BF91AF919F918F910B
:1014E0007F916F915F914F913F912F910F900FBE20
:1014F0000F901F9018951F920F920FB60F92112404
:101500002F938F939F93EF93FF93E0917D02F09140
:101510007E028081E0918302F091840282FD1BC0F3
:101520009081809186028F5F8F732091870282174E
:1015300041F0E0918602F0E0E359FD4F958F8093F2
:101540008602FF91EF919F918F912F910F900FBE87
:101550000F901F9018958081F4CF1F920F920FB6B5
:101560000F9211242F933F938F939F93AF93BF9329
:1015700080910A0390910B03A0910C03B0910D038D
:101580003091450223E0230F2D3758F50196A11D18
:10159000B11D2093450280930A0390930B03A093FF
:1015A0000C03B0930D038091460290914702A091E5
:1015B0004802B09149020196A11DB11D80934602D7
:1015C00090934702A0934802B0934902BF91AF9114
:1015D0009F918F913F912F910F900FBE0F901F9071
:1015E000189526E8230F0296A11DB11DD2CFCF93E7
:1015F000DF931092700210926F0288EE93E0A0E0E9
:10160000B0E08093710290937202A0937302B09342
:10161000740288E191E090936E0280936D0285ECF4
:1016200090E090937A028093790284EC90E090931A
:101630007C0280937B0280EC90E090937E0280930A
:101640007D0281EC90E09093800280937F0282EC97
:1016500090E0909382028093810286EC90E09093D8
:101660008402809383021092860210928702109265
:101670008802109289028FB7F89440910A03509122
:101680000B0360910C0370910D038FBFC0EDD3E08D
:10169000ECE6F3E024E433E0199211921192D901BF
:1016A0004D935D936D937D939D01CF01825B9F4F21
:1016B000DC011D921C92B3E0E038FB0769F7109241
:1016C000EF031092EE036DE371E08EE393E00E946E
:1016D000FF096FE371E088E393E00E94FF0962E491
:1016E00071E082E393E00E94FF0966E471E08CE21E
:1016F00093E00E94FF096BE471E086E293E00E94B0
:10170000FF0960E571E080E293E00E94FF0964E573
:1017100071E08AE193E00E94FF0968E571E084E1ED
:1017200093E00E94FF096BE571E08EE093E0DF91AA
:10173000CF910C94FF09CF93DF93CDB7DEB76397BA
:101740000FB6F894DEBF0FBECDBF789484B582602B
:1017500084BD84B5816084BD85B5826085BD85B555
:10176000816085BD80916E00816080936E001092D3
:10177000810080918100826080938100809181004E
:1017800081608093810080918000816080938000DF
:101790008091B10084608093B1008091B00081603D
:1017A0008093B00080917A00846080937A00809169
:1017B0007A00826080937A0080917A0081608093C1
:1017C0007A0080917A00806880937A001092C1003C
:1017D00060E08CE00E94F9058CE00E94C80360E0A4
:1017E00083E00E94F90583E00E94C803E0917D0236
:1017F000F0917E0282E08083E0917902F0917A029A
:101800001082E0917B02F0917C0280E18083109253
:101810008502E0918102F091820286E08083E0916E
:101820007F02F0918002808180618083E0917F025D
:10183000F0918002808188608083E0917F02F09146
:101840008002808180688083E0917F02F091800235
:1018500080818F7D80838EE00E944506BC01990FB8
:10186000880B990B0E94350A8091EE039091EF034B
:101870000A976CF4ECE6F3E090E080E0219131917E
:10188000232B09F40AC401968A309105B9F71E0189
:1018900092E1290E311C8AE1482E512C612C712CC9
:1018A00095E0892E912CA12CB12CD6C08AED96E022
:1018B0000E94790768EB7BE080E090E00E947C0664
:1018C00088E291E00E94990785EB96E00E947907F3
:1018D00083E996E00E94790768EB7BE080E090E086
:1018E0000E947C0688E291E00E9499078BE496E0D2
:1018F0000E94790780916A02811103C00E94AF069D
:10190000F9CF10926A026AE572E082E692E00E94E4
:1019100009160E943D0A6EE571E082E592E00E94A0
:101920000016892B09F08FC081E090E090936C0243
:1019300080936B0288C088E291E00E9499078DE154
:1019400096E00E94790787EF95E00E9479078AEC7C
:1019500095E00E94790783E00E94C803EEE9F0E079
:101960008491833071F148F48130C9F0823019F1EB
:1019700060E083E00E94F90517C0873071F188307C
:10198000A9F18430A9F78091800080628093800063
:101990008AE590E090938B0080938A0005C084B51F
:1019A000806884BD8AE587BD80916A02811127C065
:1019B0000E94AF06F9CF84B5806284BD8AE588BDF8
:1019C000F3CF809180008068809380008AE590E06A
:1019D0009093890080938800E7CF8091B000806861
:1019E0008093B0008AE58093B300DECF8091B00091
:1019F00080628093B0008AE58093B400D5CF1092C6
:101A00006A026AE572E082E692E00E9409160E948C
:101A10003D0A6CE571E082E592E00E940016892B98
:101A200081F18EE00E944506BC01990F880B990B4D
:101A30000E94350A0E940111A50194010E94CF1253
:101A4000CB010E94AB0780E090E0892B29F00E9437
:101A5000560581110E9400000E94E703E0916B028D
:101A6000F0916C02E830F10570F7E75CF24F0C94EE
:101A70000F14560C9B0C5C0D900DCE0D110E5E0ECE
:101A8000F70F8091500290915102059754F288E22D
:101A900091E00E9499078AEB95E00E94790760E047
:101AA00083E00E94F90568EB7BE080E090E00E9413
:101AB0007C0682E090E03ACF88E291E00E949907AC
:101AC00082E895E00E94790784E595E00E94790715
:101AD00080E295E00E94790780E195E00E94790715
:101AE0008EEC94E00E94790780914F02811103C02F
:101AF0000E94E703F9CF10924E0210924D0288E245
:101B000091E00E9499078DEB94E00E94790768EBC1
:101B10007BE080E090E00E947C0683E090E006CFCE
:101B200088E291E00E94990788E894E00E94790792
:101B300081E594E00E9479078AE194E00E947907A8
:101B400087EE93E00E94790786EB93E00E94790785
:101B500089EA93E00E94790780914C02811103C0C9
:101B60000E94E703F9CF10924C0210924B021092A0
:101B70004A0288E291E00E94990782E893E00E947D
:101B8000790768EB7BE080E090E00E947C06E4E06F
:101B9000F0E0F0936C02E0936B0255CF88E291E0A5
:101BA0000E94990786E793E00E94790780E493E01A
:101BB0000E9479078BE093E00E94790788E291E028
:101BC0000E9499078BEE92E00E94790780916A0249
:101BD000811103C00E94AF06F9CF10926A026AE534
:101BE00072E082E692E00E9409160E943D0A6EE5CC
:101BF00071E082E592E00E940016892B09F023CF64
:101C000088E291E00E94990783EC92E00E947907B4
:101C100068EB7BE080E090E00E947C0685E090E04D
:101C200085CE88E291E00E94990781E992E00E94C6
:101C3000790789E892E00E94790788E291E00E94A2
:101C400099078DE692E00E94790780916A028111DE
:101C500003C00E94AF06F9CF10926A026AE572E0F3
:101C600082E692E00E9409160E943D0A6EE571E04C
:101C700082E592E00E940016892B59F0E4E0F0E042
:101C8000F0936C02E0936B0260E08CE00E94F90537
:101C9000DACE88E291E00E9499078FE592E00E94F7
:101CA000790768EB7BE080E090E00E947C0686E0AC
:101CB00090E090936C0280936B02E6CF88E291E013
:101CC0000E9499078CE192E00E9479078FED91E0E4
:101CD0000E94790784EB91E00E94790788E291E005
:101CE0000E94990784EA91E00E94790768E271E016
:101CF000CE0107960E94FF098EE00E944506BC01B6
:101D0000990F880B990B0E94350A8E01035F1F4FB4
:101D10000E940111A30192010E94CF126B017C016C
:101D2000E1E6CE0ED11CE11CF11CF801C1928F013D
:101D30001A8219821C821B821E821D82BE01695F6B
:101D40007F4FCE0101960E94D509CA8A1B8AED8079
:101D5000FE80FFEFEF1AFF0AB701CE0101960E9445
:101D60006809811162C0CE0101960E949009BE01EE
:101D70006F5F7F4FCE0107960E94D509CE01019675
:101D80000E94300A0215130519F680916A0281112A
:101D9000E8C00E94AF0680916A0281112FC002E361
:101DA00010E061E08CE00E94F90569E170E080E0FC
:101DB00090E00E947C060E94AF0680916A02811129
:101DC00013C060E08CE00E94F90569E170E080E0FA
:101DD00090E00E947C060E94AF0680916A02811109
:101DE00003C001501109E9F680916A02811106C011
:101DF0006CEA7DE080E090E00E947C0610E000E06C
:101E000080916A020530110509F4BFCF81117CC0B1
:101E1000EDE0F0E0EC0FFD1FE00FF11F80818F7D02
:101E2000813479F40E940F0767C029813A818D813E
:101E30009E81B101820F931F0E940916FE82ED82DE
:101E400096CF823429F40E94F6060E940F0722C022
:101E5000833429F40E94F6060E940F0736C08434AA
:101E600019F40E94F60616C0853419F40E940F0773
:101E700045C0863419F40E940F07EECF873419F459
:101E80000E94F60622C0883419F40E940F07DDCFA5
:101E9000893419F40E940F07E9CF8A3429F40E948B
:101EA0000F070E94F6060CC08B3419F40E94F60648
:101EB000B9CF8C3419F40E940F07D3CF8D3419F4A5
:101EC0000E94F60619C08E3419F40E94F606CECF91
:101ED0008F3439F3803519F40E940F07D1CF813543
:101EE00019F40E94F606E2CF823509F4B5CF8335A6
:101EF00009F4ABCF8435B9F40E94F60668EE73E0BE
:101F000080E090E00E947C060E94AF0680916A0209
:101F100081113BCF68EE73E080E090E00E947C0688
:101F20000F5F1F4F6DCF853519F40E940F077ACFD1
:101F3000863519F40E940F07F8CF873519F40E94EF
:101F40000F07BECF883519F40E94F606EECF89350B
:101F500019F40E94F606F3CF8A3581F60E94F60640
:101F600080CF10926A026AE572E082E692E00E94F7
:101F700009160E943D0A6F81788582E592E00E94F1
:101F80000016892BD9F08EE00E944506BC01990FFE
:101F9000880B990B0E94350A0E940111A50194013A
:101FA0000E94CF12CB010E94AB0760E08CE00E9440
:101FB000F905CE0107960E94300A45CD88E291E0EE
:101FC0000E94990781E791E00E94790760E08CE028
:101FD0000E94F90568EB7BE080E090E00E947C06BF
:101FE00087E090E090936C0280936B02E2CF88E2EE
:101FF00091E00E94990788E391E00E94790780EFC1
:1020000090E00E9479078FEA90E00E94790788E2C9
:1020100091E00E9499071A8219821C821B821E82FB
:102020001D826EE373E0CE0101960E94D50968E33C
:1020300073E0CE0101960E94A20962E373E00E9460
:10204000A2096CE273E00E94A20966E273E00E94BA
:10205000A20960E273E00E94A2096AE173E00E94B3
:10206000A20964E173E00E94A2096EE073E00E949D
:10207000A209FC0144815581608171818DE692E065
:102080000E94EC0486E291E00E942807CE010196AE
:102090000E94300A88E090E049CCFC01EE0FFF1F5F
:1020A000EE0FFF1FE058FC4F48EE53E060E070E099
:1020B0004083518362837383FC01EE0FFF1FE45959
:1020C000FC4F2CEF37E031832083FC01EE0FFF1F24
:1020D000E855FC4F11821082FC01E053FC4F21E0D7
:1020E00020832FB7F89440910A0350910B0360911D
:1020F0000C0370910D032FBF880F991F880F991F34
:10210000FC01EC5BFC4F40835183628373838091BD
:10211000EE039091EF0301969093EF038093EE030B
:10212000B6CB8EE093E00E94300A84E193E00E94F7
:10213000300A8AE193E00E94300A80E293E00E9434
:10214000300A86E293E00E94300A8CE293E00E941B
:10215000300A82E393E00E94300A88E393E00E9411
:10216000300A8EE393E00C94300A8F929F92AF92E4
:10217000BF92CF92DF92EF92FF92CF93DF93EC0169
:10218000688179818A819B8161157105810591053D
:1021900021F464E279ED8BE597E02DE133EF41E046
:1021A00050E00E94CF1249015A019B01AC01A7EAFD
:1021B000B1E40E94EE126B017C01ACEEB4EFA5011C
:1021C00094010E94FC12C60ED71EE81EF91EF7FEEF
:1021D00006C081E0C81AD108E10880E8F80AC88280
:1021E000D982EA82FB82C701B6019F77DF91CF9146
:1021F000FF90EF90DF90CF90BF90AF909F908F9027
:1022000008958F929F92AF92BF92CF92DF92EF92FA
:10221000FF92609100017091010180910201909103
:102220000301611571058105910521F464E279EDE1
:102230008BE597E02DE133EF41E050E00E94CF12B3
:1022400049015A019B01AC01A7EAB1E40E94EE12D8
:102250006B017C01ACEEB4EFA50194010E94FC126D
:10226000C60ED71EE81EF91EF7FE06C081E0C81A8A
:10227000D108E10880E8F80AC0920001D09201017B
:10228000E0920201F0920301C701B6019F77FF902F
:10229000EF90DF90CF90BF90AF909F908F90089578
:1022A00060930001709301018093020190930301F8
:1022B0000895FC0188279927E89421912032E9F3B9
:1022C000293010F02E30C8F32B3241F02D3239F482
:1022D000689404C00E94A311820F911D2191205384
:1022E0002A30C0F31EF4909581959F4F089540EFDA
:1022F00053E00E947C110895FA01A191B0810097EA
:1023000019F41097E1F0CD01DC01CD010D90002012
:1023100011F4C00113C0FB012191222319F02015F3
:10232000D9F7F3CFFB012191201519F41E921196D4
:1023300006C02223C1F70D900020A1F7D001FA01B9
:10234000A193B08308957AE0979F902D879F802D69
:10235000910D112408950E94ED1108F481E0089573
:10236000E89409C097FB3EF490958095709561952F
:102370007F4F8F4F9F4F9923A9F0F92F96E9BB27E5
:102380009395F695879577956795B795F111F8CF61
:10239000FAF4BB0F11F460FF1BC06F5F7F4F8F4FCC
:1023A0009F4F16C0882311F096E911C0772321F0C2
:1023B0009EE8872F762F05C0662371F096E8862F5A
:1023C00070E060E02AF09A95660F771F881FDAF7B1
:1023D000880F9695879597F90895990F0008550FDE
:1023E000AA0BE0E8FEEF16161706E807F907C0F09B
:1023F00012161306E407F50798F0621B730B840BA3
:10240000950B39F40A2661F0232B242B252B21F47C
:1024100008950A2609F4A140A6958FEF811D811D1C
:1024200008950E9424120C9495120E94871238F08D
:102430000E948E1220F0952311F00C947E120C94C1
:10244000841211240C94C9120E94A61270F3959F55
:10245000C1F3950F50E0551F629FF001729FBB279B
:10246000F00DB11D639FAA27F00DB11DAA1F649F37
:102470006627B00DA11D661F829F2227B00DA11DEA
:10248000621F739FB00DA11D621F839FA00D611D70
:10249000221F749F3327A00D611D231F849F600D91
:1024A000211D822F762F6A2F11249F5750409AF0BA
:1024B000F1F088234AF0EE0FFF1FBB1F661F771F46
:1024C000881F91505040A9F79E3F510580F00C9411
:1024D0007E120C94C9125F3FE4F3983ED4F38695C4
:1024E00077956795B795F795E7959F5FC1F7FE2BB1
:1024F000880F911D9695879597F9089597F99F678D
:1025000080E870E060E008959FEF80EC089500247B
:102510000A941616170618060906089500240A9448
:1025200012161306140605060895092E0394000CCE
:1025300011F4882352F0BB0F40F4BF2B11F460FF5D
:1025400004C06F5F7F4F8F4F9F4F089557FD905886
:10255000440F551F59F05F3F71F04795880F97FB67
:10256000991F61F09F3F79F0879508951216130621
:102570001406551FF2CF4695F1DF08C01616170650
:102580001806991FF1CF8695710561050894089585
:10259000E894BB2766277727CB0197F90895052E86
:1025A00097FB1EF400940E94E61257FD07D00E948C
:1025B000381307FC03D04EF40C94E6125095409566
:1025C000309521953F4F4F4F5F4F089590958095DF
:1025D000709561957F4F8F4F9F4F08950E945A13BA
:1025E000A59F900DB49F900DA49F800D911D112467
:1025F0000895B7FF0C94EE120E94EE12821B930B0B
:1026000008952F923F924F925F926F927F928F9296
:102610009F92AF92BF92CF92DF92EF92FF920F9371
:102620001F93CF93DF93CDB7DEB7CA1BDB0B0FB67B
:10263000F894DEBF0FBECDBF09942A883988488838
:102640005F846E847D848C849B84AA84B984C884CE
:10265000DF80EE80FD800C811B81AA81B981CE0FC5
:10266000D11D0FB6F894DEBF0FBECDBFED010895AA
:10267000A1E21A2EAA1BBB1BFD010DC0AA1FBB1F86
:10268000EE1FFF1FA217B307E407F50720F0A21BF8
:10269000B30BE40BF50B661F771F881F991F1A9465
:1026A00069F760957095809590959B01AC01BD018F
:1026B000CF010895A29FB001B39FC001A39F700DE9
:1026C000811D1124911DB29F700D811D1124911D3A
:1026D00008955058BB27AA270E9481130C94951285
:1026E0000E94871238F00E948E1220F039F49F3F2A
:1026F00019F426F40C9484120EF4E095E7FB0C9484
:102700007E12E92F0E94A61258F3BA1762077307C8
:102710008407950720F079F4A6F50C94C8120EF4FE
:10272000E0950B2EBA2FA02D0B01B90190010C01E1
:10273000CA01A0011124FF27591B99F0593F50F4F9
:10274000503E68F11A16F040A22F232F342F442751
:10275000585FF3CF469537952795A795F040539549
:10276000C9F77EF41F16BA0B620B730B840BBAF019
:102770009150A1F0FF0FBB1F661F771F881FC2F784
:102780000EC0BA0F621F731F841F48F48795779598
:102790006795B795F7959E3F08F0B0CF9395880F52
:1027A00008F09927EE0F9795879508950E94AE122D
:1027B00088F09F5798F0B92F9927B751B0F0E1F002
:1027C000660F771F881F991F1AF0BA95C9F714C0B2
:1027D000B13091F00E94C812B1E008950C94C81273
:1027E000672F782F8827B85F39F0B93FCCF38695EB
:1027F00077956795B395D9F73EF490958095709548
:1028000061957F4F8F4F9F4F08950E94ED1108F4FF
:102810008FEF08950E94ED11880B990B0895EE0F2C
:10282000FF1F0590F491E02D09940F931F93CF9310
:10283000DF938230910510F482E090E0E091F403A0
:10284000F091F50330E020E0B0E0A0E0309799F49B
:102850002115310509F44AC0281B390B24303105F4
:10286000D8F58A819B816115710589F1FB019383FC
:102870008283FE0111C0408151810281138148177A
:102880005907E0F04817590799F4109761F012962C
:102890000C93129713961C933296CF01DF91CF9130
:1028A0001F910F9108950093F4031093F503F4CF53
:1028B0002115310551F04217530738F0A901DB010A
:1028C0009A01BD01DF01F801C1CFEF01F9CF90936B
:1028D000F5038093F403CDCFFE01E20FF31F819344
:1028E00091932250310939832883D7CF2091F20365
:1028F0003091F303232B41F420910601309107011D
:102900003093F3032093F2032091040130910501E9
:102910002115310541F42DB73EB740910801509182
:102920000901241B350BE091F203F091F303E21748
:10293000F307A0F42E1B3F0B2817390778F0AC01E2
:102940004E5F5F4F2417350748F04E0F5F1F5093BF
:10295000F3034093F203819391939FCFF0E0E0E083
:102960009CCFCF93DF930097E9F0FC01329713825D
:102970001282A091F403B091F503ED0130E020E064
:102980001097A1F420813181820F931F2091F203CF
:102990003091F3032817390709F061C0F093F3036E
:1029A000E093F203DF91CF910895EA01CE17DF079C
:1029B000E8F54A815B819E0141155105B1F7E901B6
:1029C000FB83EA8349915991C40FD51FEC17FD078A
:1029D00061F4808191810296840F951FE9019983AA
:1029E0008883828193819B838A83F0E0E0E0129662
:1029F0008D919C9113970097B9F52D913C9111976A
:102A0000CD010296820F931F2091F2033091F303C0
:102A10002817390739F6309751F51092F5031092BF
:102A2000F403B093F303A093F203BCCFD383C28328
:102A300040815181840F951FC817D90761F44E5FFB
:102A40005F4F88819981480F591F518340838A8144
:102A50009B81938382832115310509F0B0CFF093D8
:102A6000F503E093F4039ECFFD01DC01C0CF138298
:102A70001282D7CFB0E0A0E0E0E4F5E10C940313BC
:102A80008C01009751F4CB010E9415148C01C801F0
:102A9000CDB7DEB7E0E10C941F13FC01E60FF71F82
:102AA0009C0122503109E217F30708F49DC0D901B7
:102AB000CD91DC911197C617D70798F0C530D10595
:102AC00030F3CE0104978617970708F3C61BD70B80
:102AD0002297C193D1936D937C93CF010E94B1143F
:102AE000D6CF5B01AC1ABD0A4C018C0E9D1EA09185
:102AF000F403B091F503512C412CF12CE12C1097EB
:102B000031F58091F2039091F3038815990509F04E
:102B10005CC04616570608F058C080910401909199
:102B20000501009741F48DB79EB74091080150917F
:102B30000901841B950BE817F90708F055C0F093BD
:102B4000F303E093F203F90171836083A0CF8D91C9
:102B50009C91119712966C90129713967C901397F4
:102B6000A815B90559F56C0142E0C40ED11CCA1470
:102B7000DB0420F1AC014A195B09DA0112961597C2
:102B800080F06282738251834083D9016D937C937C
:102B9000E114F10471F0D7011396FC93EE931297B0
:102BA00076CF22968C0F9D1FF90191838083F301CC
:102BB000EFCFF093F503E093F40369CF481659067D
:102BC00008F42C017D01D3019ACFCB010E9415148A
:102BD0007C01009749F0AE01B8010E94F715C801C9
:102BE0000E94B114870153CF10E000E050CFFB01E9
:102BF000DC0102C001900D9241505040D8F7089579
:102C0000FB01DC018D91019080190110D9F3990B22
:102C10000895FB01DC0101900D920020E1F7089579
:102C200013E0CDE9D3E004C0FE010E940F14219609
:0A2C3000CE39D107C9F7F894FFCFA1
:102C3A00010000000000F603800060019A01B9015A
:102C4A00E9011002000000008C05EC041905D90501
:102C5A004A0528053C050D0A006E616E00696E661C
:102C6A00006F76660020566F6C74002C004F0021AE
:102C7A00350038213300352F323700322146210002
:102C8A0031313900213434002F35003831006A00DF
:102C9A005363686164652C206461732069737420CE
:102CAA006C6569646572206E696368742072696311
:102CBA00687469672C207665727375636827732058
:102CCA006E6F63686D616C7321004C65696465722F
:102CDA00204E65696E2C2070726F62696572206E73
:102CEA006F63686D616C7321004F68206E65696E51
:102CFA002C2049636820676C6175622044752068DE
:102D0A006173742065696E656E204665686C6572CC
:102D1A002067656D61636874005669656C6C6569E6
:102D2A00636874206B6C61707074277320626569C4
:102D3A006D206EC3A463687374656E204D616C0068
:102D4A00547574206D6972206C6569642C20616207
:102D5A0065722064696520416E74776F72742069A8
:0A2D6A0073742066616C73636800E7
:00000001FF
